:200000000C9450000C9462000C9462000C9462000C9462000C9462000C9462000C946200E2
:200020000C9462000C9462000C9462000C9462000C942D020C9462000C9462000C946200E3
:200040000C9462000C9462000C9462000C9462000C9462000C9462000C9462000C94620090
:200060000C9462000C9462000C9462000C9462000C9462000C9462000C9462000C94620070
:200080000C9462000C9462000C9462000C9462000C9462000C9462000C9462000C94620050
:2000A00011241FBECFEFCDBFDFE3DEBF28E2A0E0B8E201C01D92AC30B207E1F70E94070CCF
:2000C0000C94F20F0C94000086EA91E60E94F30B88EE9FE50E94F30B8BE090E60E94F30B3D
:2000E00088EE9FE50E94F30B8BE290E60E94F30B0E94080B83E490E60E94F30B87E094E2D4
:200100000E947B0280E690E60E94F30B0E9425082FEF81EE94E0215080409040E1F700C0DB
:2001200000008CE790E60E94F30B60E970E685E70E949A0989E990E60C94F30BFF920F932D
:200140001F93CF93DF93CDB7DEB7A897CDBFDEBF9F938F9388EB90E69F938F931F9288E2EC
:20016000F82EFF928E010F5F1F4F1F930F930E94EC0CC8010E94F30B0E94480A2FEF80E78D
:2001800092E0215080409040E1F700C000000E944C030E94AA058CEC90E60E94F30B85E718
:2001A0000E9473091F928F9388ED90E69F938F931F92FF921F930F930E94EC0C0E94E30852
:2001C000C8010E94F30BCDBFDEBFA896CDBFDEBFDF91CF911F910F91FF90089564E170E045
:2001E0000E94A20C892BA9F480910028909101288230910541F174F40197A8F0E9F08091DF
:200200000028909101288395837080930028109201280895039799F70E94D3090E94F80973
:200220008DE291E606C00E94D3090E94F1098AEE90E60E94F30BE3CF0E94E1090E94FF0982
:2002400081E091E6F6CF0E94DA090E94F80985E191E6EFCF0F931F93CF93DF93CDB7DEB7FD
:20026000C055D109CDBFDEBFE0E8FAE0108211828FE39FE1848795871286138681E08683EB
:200280008093850A83E08083A2E1B1E09C91A0E16C9102851385A485B585458121818081AC
:2002A0001F929F931F926F931F930F93BF93AF931F924F931F922F931F928F938DE491E6FF
:2002C0009F938F931F9280E58F938E010F5F1F4F1F930F930E94EC0CC8010E94F30BCDBF44
:2002E000DEBFC05BDF4FCDBFDEBFDF91CF911F910F910895EF92FF920F931F93CF93DF93F8
:20030000CDB7DEB7C054D109CDBFDEBFE2E0F8E2108211821282138200E111E0F801418136
:20032000228180811F924F931F922F931F928F9389EA91E69F938F931F9280E48F937E014C
:20034000FFEFEF1AFF0AFF92EF920E94EC0CC7010E94F30B81E0F8018083789488ED91E634
:200360000E94F30BCDBFDEBFC05CDF4FCDBFDEBFDF91CF911F910F91FF90EF9008950F93D4
:200380001F93CF93DF93CDB7DEB7A897CDBFDEBF80910628909107280196803523EC9207D3
:2003A00058F5809306289093072880910528811569F082EF91E60E94F30B1092052880E277
:2003C0008093A7048AEF91E60E94F30B80910428811531F08EEF91E60E94F30B0E94100A8B
:2003E0001092032810920228A896CDBFDEBFDF91CF911F910F91089510920628109207289F
:20040000609102284091032820910428809105281F926F931F924F931F922F931F928F931E
:2004200085EE91E69F938F931F9288E28F938E010F5F1F4F1F930F930E94EC0CC8010E947D
:20044000F30BCDBFDEBFB1CF88ED84BF109261008091630080FDFCCF08958F938FB78F9357
:2004600081E08093860A80E28093A704809108288F5F809308288F918FBF8F9118950F9309
:200480001F93CF93DF930F92CDB7DEB7082F998386E60E94CA0A811112C00E94000B0E9434
:2004A000480A8FE891E00197F1F700C000008FEF9FEF0F90DF91CF911F910F910895898150
:2004C0000E94740B811549F3802F0E94740B811521F387E60E94CA0A8115F9F20E94880B16
:2004E000082F0E94980BEFE8F1E03197F1F700C00000902FDECF0F931F93CF93DF93CDB750
:20050000DEB76E97CDBFDEBF182F092F0E943F029F938F930F931F938FE392E69F938F93D0
:200520001F928EE18F938E010F5F1F4F1F930F930E94EC0CC8010E94F30BCDBFDEBF6E968A
:20054000CDBFDEBFDF91CF911F910F910895CF93DF93C8EED3E080E090E80E943F0283FD3D
:200560000CC08FE99FE00197F1F700C00000219791F780E0DF91CF91089581E0FBCF80E0E0
:2005800090E80E943F0283FB882780F90895CF92DF92EF92FF920F931F93CF93DF93F82E8B
:2005A000E92EEB018A0186E60E94CA0A81110CC00E94000BDF91CF911F910F91FF90EF9092
:2005C000DF90CF900C94480A8E2D0E94740B8F2D0E94740B87E60E94CA0A811549F36E017E
:2005E000E12CF12C01501109E016F106A0F0C00FD11F0E94980B88838FE891E00197F1F772
:2006000000C00000DF91CF911F910F91FF90EF90DF90CF9008950E94880BF60181936F01D1
:20062000FFEFEF1AFF0AE0CFCF93DF93CDB7DEB7C254D109CDBFDEBF22966FAF22972396BD
:200640007FAF239790E0809640E450E0BE016F5F7F4F20E2929F902D829F802D91291124D0
:200660000E94C702FE0131962296AFAD22972396BFAD23979E012F5B3F4F408181818D9303
:200680004D9332962E173F07C1F7CE5BDF4FCDBFDEBFDF91CF9108956F927F928F929F921E
:2006A000AF92BF92CF92DF92EF92FF920F931F93CF93DF93CDB7DEB76497CDBFDEBF0E94BD
:2006C000480A8FE19EE40197F1F700C0000084E592E60E94F30B612C712C630183017E0184
:2006E0009FEFE91AF90AA12CB12C430124E0920EC4018A0D9B1D0E943F028F3F980711F46B
:200700000F5F1F4F9F938F9382E692E69F938F931F9284E18F93FF92EF920E94EC0CC701C9
:200720000E94F30BCDBFDEBF9FE1A916B10409F047C086EA91E60E94F30B2FEFC21AD20A9F
:200740008C2D837090E0892B41F40E94480A8FEC97E00197F1F700C0000090E2690E711CF8
:2007600028E1C216D10409F0BECF87E692E60E94F30B0115110591F01F930F9383E792E6D5
:200780009F938F931F9284E18F93FF92EF920E94EC0CC7010E94F30BCDBFDEBF6496CDBF0A
:2007A000DEBFDF91CF911F910F91FF90EF90DF90CF90BF90AF909F908F907F906F90089519
:2007C0008CE20E94EC0B8FEFA81AB80A91CFCF92DF92EF92FF920F931F93CF93DF93CDB720
:2007E000DEB72897CDBFDEBF89839A836B837C834D835E830E94480A8FE19EE40197F1F74F
:2008000000C000001F821886C12CD12C86018F8198859C5F0E943F02EF80F884EFEFEE1A8C
:20082000FE0A8F3F9807F1F00817190770F42F812F71C22EEF81F88525E0F695E7952A95C7
:20084000E1F7EF83F887DF808C018E2D8F7790E0892B41F40E94480A8FE99FE00197F1F75E
:2008600000C00000EF82F886E11493E0F90679F6E981FA81C082EB81FC81D082ED81FE81A4
:20088000008311832896CDBFDEBFDF91CF911F910F91FF90EF90DF90CF9008958F929F926F
:2008A000AF92BF92CF92DF92EF92FF920F931F93CF93DF93CDB7DEB72897CDBFDEBF89838D
:2008C0009A836B837C834D835E830E94480A8FE19EE40197F1F700C0000000E010E01F82C6
:2008E00018864801540174018FEFD82ECD2CC8019C5F0E943F020F5F1F4F8F3F9807F1F0F9
:200900008C159D0508F46C01E816F90608F47C01880E991EA11CB11C8F81988501968F8308
:200920009887802F8F7790E0892B41F40E94480AEFE9FFE03197F1F700C000000115F3E086
:200940001F07A9F6E981FA81C082D182EB81FC81E082F1828F819885009749F09C0140E0E0
:2009600050E0B401C5010E94B60C2F8338878F819885ED81FE81808391832896CDBFDEBFDF
:20098000DF91CF911F910F91FF90EF90DF90CF90BF90AF909F908F9008952F923F924F926F
:2009A0005F926F927F928F929F92AF92BF92CF92DF92EF92FF920F931F93CF93DF93CDB7C0
:2009C000DEB72C97CDBFDEBF8B879C870E94480A8FE19EE40197F1F700C0000000E010E06B
:2009E00019861A86680176012601360146015601C8019C5F0E943F0218012FEF221A320A86
:200A00008F3F9807B1F129853A852817390710F489879A872B853C8528173907E8F4AC012D
:200A2000421B530B202F2F7130E0DA010E94930C860E971EA81EB91E980165E03695279595
:200A40006A95E1F70E94930C460E571E681E791EC40ED51EE11CF11C822D8F7790E0892BF0
:200A600041F40E94480A8FE99FE00197F1F700C000008101211493E0390609F0B9CFC11457
:200A8000D104E104F10479F160E0782D892D9A2D9601A7010E94B60C890160E0742D852D1B
:200AA000962D9601A7010E94B60C822F532F9801482F69857A858B859C852C96CDBFDEBF84
:200AC000DF91CF911F910F91FF90EF90DF90CF90BF90AF909F908F907F906F905F904F9062
:200AE0003F902F90089580E05CE000E010E1DFCF0F931F93CF93DF93CDB7DEB72F97CDBF1D
:200B0000DEBF8F87AE01475F5F4FBE01655F7F4FCE010D960E944E040B851C858D859E8502
:200B20009801281B390B8F85A82FB0E00E94930C24E630E040E050E00E94B60CC801821BA5
:200B4000930B2F96CDBFDEBFDF91CF911F910F910C94CD049F92AF92BF92CF92DF92EF9262
:200B6000FF920F931F93CF93DF93CDB7DEB7CC55D109CDBFDEBF80E892E60E94F30BAE0150
:200B8000475A5F4FBE01655A7F4FCE01845A9F4F0E94E7036B968FAD6B978F936A968FADF6
:200BA0006A978F936C968FAD6C971F928F936D968FAD6D971F928F938EE992E69F938F93A5
:200BC0001F9280E5F82EFF928E010F5F1F4F1F930F930E94EC0CC8010E94F30B84E10E947F
:200BE0007805B62EA72E62962FAF629763963FAF639764964FAF649765965FAF6597689619
:200C00008FAF689769969FAF6997922EE32ED42EC52E84E6D89E900111241F923F931F92AA
:200C2000CF92989EC00111241F929F931F92EF9289EB92E69F938F931F92FF921F930F933C
:200C40000E94EC0CC8010E94F30BAF92BF9269968FAD69978F9368968FAD68978F938CEDCE
:200C600092E69F938F931F92FF921F930F930E94EC0CCDBFDEBFC8010E94F30BAF92BF9254
:200C8000CF92DF92EF929F9285EF92E69F938F931F92FF921F930F930E94EC0CC8010E94F5
:200CA000F30BCDBFDEBFC45ADF4FCDBFDEBFDF91CF911F910F91FF90EF90DF90CF90BF904D
:200CC000AF909F9008952F923F924F925F926F927F928F929F92AF92BF92CF92DF92EF925C
:200CE000FF920F931F93CF93DF93CDB7DEB7C057D109CDBFDEBFA5968EAF9FAFA5979C0169
:200D00003A5FFC01212C312C6101710181014FEF5FEFA3964EAF5FAFA397819191918F3F31
:200D20009807B1F0A3966EAD7FADA3978617970720F4A3968EAF9FAFA3970817190708F431
:200D40008C01C80ED91EE11CF11C7FEF271A370AE217F30711F721143104D1F488E093E634
:200D6000C059DF4FCDBFDEBFDF91CF911F910F91FF90EF90DF90CF90BF90AF909F908F902B
:200D80007F906F905F904F903F902F900C94F30B9801A3968EAD9FADA397281B390BA4E1AC
:200DA000B0E00E94930C24E630E040E050E00E94B60CD801A21BB30BAB96AEAFBFAFAB97F2
:200DC000E1961EAE1FAEE197AD961FAEAD97AC961FAEAC97A12CB12C450124013401A9965C
:200DE0001CAE1DAE1EAE1FAEA997A901401B510BAF964EAF5FAFAF97A596AEADBFADA59750
:200E0000ED91FD91A596AEAFBFAFA597EF3FFE0709F44FC00E171F07A0F4E0962FADE0979D
:200E20002F71AC962FAFAC97E1962EAD3FADE19795E0369527959A95E1F7AD962FAFAD9791
:200E40008F01AB964EAD5FADAB974E175F0788F5AF964EAD5FADAF97E40FF51FE0962FAD45
:200E6000E0972F7130E0DF010E94930CA9962CAD3DAD4EAD5FADA997260F371F481F591F77
:200E8000A9962CAF3DAF4EAF5FAFA997E1962EAD3FADE19785E0369527958A95E1F70E94C6
:200EA000930C460E571E681E791E8E0E9F1EA11CB11CE1964EAD5FADE1974F5F5F4FE19601
:200EC0004EAF5FAFE1974115534009F095CF910140E050E0B601C7010E94B60CF22EE32E53
:200EE00081149104A104B10409F4A8C0A9962CAD3DAD4EAD5FADA99760E0722F832F942F6A
:200F00009401A5010E94B60CD22EC32E60E0742D852D962D9401A5010E94B60C922E832EDB
:200F20008CE493E60E94F30B1F930F93AD963FADAD971F923F93AC964FADAC971F924F93CA
:200F400085E793E69F938F931F9280E6782E7F925E015FEFA51AB50ABF92AF920E94EC0C33
:200F6000C5010E94F30B84E6989E900111241F923F931F928F92D89EC00111241F929F9301
:200F80001F92CF9280E993E69F938F931F927F92BF92AF920E94EC0CC5010E94F30BEF9234
:200FA000FF92A3966FADA3976F93A2967FADA2977F931F930F93AB968FADAB978F93AA96EB
:200FC0009FADAA979F9383EB93E69F938F931F927F92BF92AF920E94EC0CCDBFDEBFC5013A
:200FE0000E94F30B1F930F938F929F92CF92DF9285EF92E69F938F931F927F92BF92AF9245
:201000000E94EC0CC5010E94F30BCDBFDEBFC059DF4FCDBFDEBFDF91CF911F910F91FF9088
:20102000EF90DF90CF90BF90AF909F908F907F906F905F904F903F902F90089590E1C92E18
:20104000D12C2CE0822E912C6BCF80ED0E94CA0A8BE60E94740B80E00E94740B0E94000B3D
:201060002FEF81EE94E0215080409040E1F700C00000089580ED0E94CA0A85E70E94740BC9
:2010800081ED0E94CA0A0E94980B982F81E0983609F080E00895EF92FF920F931F93CF9373
:2010A000DF93CDB7DEB72C97CDBFDEBF8F83988769877A874B875C8780ED0E94CA0A8BE391
:2010C0000E94740B81ED0E94CA0A8E010F5F1F4F7E0186E0E80EF11C0E94880BF801819376
:2010E0008F01EE15FF05C1F70E94980B29813A81322723273227EF81F885208331832B810B
:201100003C81322723273227E985FA85208331832D81EB85FC85808321832C96CDBFDEBFA1
:20112000DF91CF911F910F91FF90EF900895EF92FF920F931F93CF93DF93CDB7DEB72C97CE
:20114000CDBFDEBF8F83988769877A874B875C8780ED0E94CA0A83E40E94740B81ED0E9414
:20116000CA0A8E010F5F1F4F7E0186E0E80EF11C0E94880BF80181938F01EE15FF05C1F7B7
:201180000E94980B29813A81322723273227EF81F885208331832B813C8132272327322700
:2011A000E985FA85208331832D81EB85FC85808321832C96CDBFDEBFDF91CF911F910F919A
:2011C000FF90EF900895FF920F931F93CF93DF93CDB7DEB7C854D109CDBFDEBF8EED93E67F
:2011E0000E94F30B0E943A08811509F46FC087EF93E60E94F30BAE014D5B5F4FBE016B5B90
:201200007F4FCE01895B9F4F0E944B0825968FAD25978F9324968FAD24978F9327968FADC9
:2012200027978F9326968FAD26978F9329968FAD29978F9328968FAD28978F938EE194E656
:201240009F938F931F928CE3F82EFF928E010F5F1F4F1F930F930E94EC0CC8010E94F30BA1
:20126000AE01435C5F4FBE01615C7F4FCE018F5B9F4F0E9497088EAD8F938DAD8F932196D0
:201280008FAD21978F938FAD8F9323968FAD23978F9322968FAD22978F9386E394E69F9325
:2012A0008F931F92FF921F930F930E94EC0CC8010E94F30BCDBFDEBFC85BDF4FCDBFDEBFD0
:2012C000DF91CF911F910F91FF9008958EE494E6C85BDF4FCDBFDEBFDF91CF911F910F913C
:2012E000FF900C94F30BCF93DF930F92CDB7DEB7898380ED0E94CA0A811109C00E94000B3C
:201300000E94480A8FEF0F90DF91CF91089589810E94740B811591F381ED0E94CA0A811590
:2013200069F30E94980BEFE8F1E03197F1F700C00000E9CF0F931F93CF93DF93CDB7DEB7FB
:20134000A897CDBFDEBF162F072F0E9473091F928F930F931F9383E694E69F938F931F927D
:2013600088E28F938E010F5F1F4F1F930F930E94EC0CC8010E94F30BCDBFDEBFA896CDBF2C
:20138000DEBFDF91CF911F910F910895E0E4F4E083E08183868380E281838683E0E681E055
:2013A000818386830895E0E4F4E081E0858382E086830895E0E4F4E081E0868382E085830E
:2013C000089583E0809346040895811519F014F00C94D30911F00C94DA0983E080934604B0
:2013E000089580E28093450481E080936604089580E28093460481E080936504089580E27C
:201400008093460481E0809366040895811519F014F00C94F10911F00C94F8090C94FF096D
:20142000CF9310920428C0910B28C230B1F038F4C1110DC00E94D3090E94F10902C0C330CB
:2014400089F0CF5FC370C0930B28CF91089583E0809346040E94FF09F4CF0E94DA090E94DB
:20146000F809EFCF0E94D309FACFE0E0F4E088E0828B838BE0EAF8E08FE0868381E08383CE
:2014800085838FE39CE90197F1F700C0000008951092A3088CE08093010488E099E08093AB
:2014A00006042AE62A95F1F700C0809305042AE62A95F1F700C0915091F794E0909306040E
:2014C0002AE62A95F1F700C0809305042AE62A95F1F700C0909305049AE69A95F1F700C07F
:2014E0009CE09093020480931204809313048FE08093A60881E08093A3088093A5088FE86E
:2015000091E00197F1F700C0000008950F931F93CF93DF93CDB7DEB7E297CDBFDEBF2091E9
:20152000A6088091A5081F922F931F928F9380E794E69F938F931F9282E38F938E010F5F8F
:201540001F4F1F930F930E94EC0CC8010E94F30B8091A508182F13708DE894E60E94F30BAF
:20156000CDBFDEBF89E994E6113018F061F483EA94E60E94F30BE296CDBFDEBFDF91CF91C0
:201580001F910F9108958AEA94E6123091F382EB94E6EFCFCF93DF930F92CDB7DEB789836B
:2015A0008091A5088370833011F0811108C00E94480A8FE99FE00197F1F700C00000809130
:2015C000A5088C7029F08CE08093A5080E94480A99819093A70880E593EC2091A5082034A7
:2015E00048F40197D1F70E94480A80E00F90DF91CF9108958091A508829583958170F6CF4C
:2016000083E08093A40885E38A95F1F700000895CF92DF92EF92FF920F931F93CF93DF9390
:20162000CDB7DEB76E97CDBFDEBF81E0E82EF12C0EE110E06E012FEFC21AD20A8E2D880F59
:201640000E94CA0A811591F0FF92EF9289EB94E69F938F931F920F93DF92CF920E94EC0CEA
:20166000C6010E94F30B1F5FCDBFDEBF0E94000B8FE39FE10197F1F700C000009FEFE91AEC
:20168000F90A20E8E216F104C9F6111116C082ED94E60E94F30B0E94480A80E095E60E94A1
:2016A000F30B6E96CDBFDEBFDF91CF911F910F91FF90EF90DF90CF9008951F921F938AEE8B
:2016C00094E69F938F931F928EE18F937E018FEFE81AF80AFF92EF920E94EC0CC7010E94E3
:2016E000F30BCDBFDEBFD7CF8093A80820E533EC9091A508892F807496FD04C02150304084
:20170000B9F708958091A508829583958170089580E593EC2091A50827FD04C00197D1F777
:201720008FEF08958091A80892E09093A408089580E593EC2091A50827FD04C00197D1F765
:201740008FEF08958091A80897E09093A40808951092E205E0E4F4E081E0818382E08283DD
:20176000E0E2F8E08AE09AE18087918783E0878380EC868308959091240895FFFCCF80938D
:2017800022080895CF93DF93EC018881811103C0DF91CF91089521960E94BB0BF6CF809101
:2017A000240887FFFCCF809120080895E0EAF4E081E0818382E08283E0EEF5E082818F7CBB
:2017C0008283E0E4F8E08AE09AE18087918783E0878380EC868308959091440895FFFCCF19
:2017E000809342080895CF93DF93EC018881811103C0DF91CF91089521960E94EC0BF6CF4E
:201800008091440887FFFCCF809140080895CDB7DEB7C054D109CDBFDEBF0E9424022FEF0E
:2018200081EE94E0215080409040E1F700C000000E94D60B0E942A0180E28093A1048093AF
:20184000A6040E94350A0E94C6090E947A012FEF81EE94E0215080409040E1F700C00000D5
:201860000E94480A2FEF80E792E0215080409040E1F700C000000E94480A2FEF80E792E0F9
:20188000215080409040E1F700C000000E94480A2FEF80E792E0215080409040E1F700C02B
:2018A00000000E94640078948E010F5F1F4F0E94BF018091092890910A28019680930928D9
:2018C00090930A288031974290F31092092810920A28E0918A0AF0918B0A8091860AA09112
:2018E00008286FB74091800A209110011F92AF931F926F931F924F931F922F931F928F93F6
:20190000FF93EF9386E092E69F938F931F9280E48F931F930F930E94EC0CC8010E94F30BF3
:20192000CDBFDEBFC4CFA29FB001B39FC001A39F700D811D1124911DB29F700D811D112405
:20194000911D089597FB072E16F4009407D077FD09D00E94D80C07FC05D03EF490958195E8
:201960009F4F0895709561957F4F0895A1E21A2EAA1BBB1BFD010DC0AA1FBB1FEE1FFF1F77
:20198000A217B307E407F50720F0A21BB30BE40BF50B661F771F881F991F1A9469F76095F6
:2019A0007095809590959B01AC01BD01CF010895AA1BBB1B51E107C0AA1FBB1FA617B707C2
:2019C00010F0A61BB70B881F991F5A95A9F780959095BC01CD010895AEE0B0E0E2EFFCE069
:2019E0000C94D10F86E08C832B893C8929833A838D899E89813030E8930710F080E090E898
:201A000001978D839E83AE01475E5F4F6F89788DCE0101960E941F0D4D815E8157FD0BC0FE
:201A2000EF81F8854E175F070CF4FA012B893C89E20FF31F10822E96E2E00C94EA0FACE03A
:201A4000B0E0E5E2FDE00C94C40F5C016B017A01FC0116821782838181FFD3C12AE0522ECB
:201A6000F5012381F60123FD859123FF81916F01811509F42CC1853239F423FD959123FF2F
:201A800091916F01953229F4B50190E00E941A0FE7CF30E0712C00E010E0103210F59B3298
:201AA000C9F050F49032B9F09332C9F09E3261F516FD0DC1106405C09D3279F0903399F478
:201AC0001160F60123FD959123FF91916F019111E4CF23C012601460F4CF1860F2CF106119
:201AE000F0CF17FD1AC080ED890F8A30F8F616FF05C0759C800D1124782EE3CF059D800D58
:201B00001124082F1062DDCF9C3611F41068D9CF9C3409F440C09836A1F2892F8F7D855479
:201B20008330D8F1933609F45FC0933709F46AC0933509F476C0943619F0993609F0A2C05B
:201B4000F70117FF98C061917191819191917F011F7697FF03C00E94B90F10682AE030E08D
:201B60004E014FEF841A940AA4010E945B0F682E681816FFD2C0812F8E7F671408F0CCC072
:201B800014FF1DC112FD11C11E7E972C812F867809F4CEC00FC131E094CF311509F1F8E07F
:201BA000EF0EF11C8FE3898391E0692E712C4E018FEF881A980A1F7713FD04C06016710492
:201BC00008F43FC06114710409F042C0011509F447CFB50180E290E00E941A0F0150F6CF93
:201BE00044E0E40EF11CDECFF70180818983F2E0EF0EF11C81E0682E712C4E014FEF841A75
:201C0000940AD9CFF701819091907F01672D70E016FD02C06FEF7FEFC4010E940F0F3C018D
:201C2000CACFF701819091907F01672D70E016FD02C06FEF7FEFC4010E94040F3C011068AD
:201C4000BBCFB50180E290E00E941A0F0150B6CFF40117FD859117FF81914F01B50190E014
:201C60000E941A0F81E0011101C080E0081BF1E06F1A7108A7CF61917191872F880F880BC5
:201C8000982F65CF9537C9F41F7E1C872AE030E0FC85F7FF3BC0F7016191719181919191D4
:201CA0007F014E014FEF841A940AA4010E945B0F682E68181C851F775CCF812F897F8C87E7
:201CC000903799F058F49835B9F09F36E1F0F501868197812C96EFE00C94DD0F9837B9F79B
:201CE00014FD06C020E130E0D3CF9C8590619C87EC85E460EC87F6CF14FF02C016601C874A
:201D000020E132E0C5CF28E030E0C2CFF7016191719180E090E0C4CF182F962C14FF36CF03
:201D2000FE01E60DF11D8081803309F041C0197E13FD0EC010FF4FC0762C901618F4700E90
:201D40007918902E802F8919091508F480E0980E901608F042C0091914FF41C0B50180E3D4
:201D600090E00E941A0F12FF09C088E590E011FD02C088E790E0B5010E941A0F6714D0F105
:201D80004E018FEF881A980A6A94FE013296E60DF11D3F01F30182913F01B50190E00E941D
:201DA0001A0F68147904B1F711CF972C182FB8CF12FD02C09394BCCF93949394B9CF972CCC
:201DC000182FE4CEB50180E290E00E941A0F83948016C0F3B7CF892CFBCF00E0BDCF812F36
:201DE000867861F280E211FD8BE217FD8DE2B50190E0C2CFB50180E390E00E941A0F7A9419
:201E0000BDCF8FEF9FEF66CFFC010590615070400110D8F7809590958E0F9F1F0895FC01F3
:201E20006150704001900110D8F7809590958E0F9F1F0895A3E0B0E0E0E2FFE00C94D00F6B
:201E4000182F99836A837B83DB0113968C9181FD09C01FEFBFEFB983812F99812396E3E00D
:201E60000C94E90F82FF1BC0EA81FB8126813781848195812817390754F40190F081E02D37
:201E8000CF010196AA81BB818D939D931083EA81FB8186819781019686839783DDCFAA81FA
:201EA000BB811896ED91FD911A97BD01812F0995892B69F3CECFFA01AA27283051F120310B
:201EC00081F1E8946F936E7F6E5F7F4F8F4F9F4FAF4FB1E03ED0B4E03CD0670F781F891FCC
:201EE0009A1FA11D680F791F8A1F911DA11D6A0F711D811D911DA11D20D009F468943F917D
:201F00002AE0269F11243019305D3193DEF6CF010895462F4770405D4193B3E00FD0C9F713
:201F2000F6CF462F4F70405D4A3318F0495D31FD4052419302D0A9F7EACFB4E0A695979526
:201F4000879577956795BA95C9F700976105710508959B01AC010A2E06945795479537958F
:201F60002795BA95C9F7620F731F841F951FA01D089590958095709561957F4F8F4F9F4F13
:201F800008952F923F924F925F926F927F928F929F92AF92BF92CF92DF92EF92FF920F93C4
:201FA0001F93CF93DF93CDB7DEB7CA1BDB0BCDBFDEBF09942A88398848885F846E847D84D8
:201FC0008C849B84AA84B984C884DF80EE80FD800C811B81AA81B981CE0FD11DCDBFDEBF4F
:201FE000ED010895F894FFCF3D3D3D3D3D3D3D3D3D3D3D3D3D3D3D3D3D3D3D3D3D3D3D3D44
:202000003D3D3D3D3D3D3D3D0D0A0041546D6567613438303920402031364D487A202D205A
:2020200049324320546573740D0A000D0A5363616E6E696E6720493243206275732E2E2EF1
:202040000D0A000D0A4D4C5839303634302044657669636520494420746573743A0D0A0010
:202060000D0A496E697469616C697A696E67204D5055363035302E2E2E0D0A004D505536B8
:202080003035302057484F5F414D5F493A0D0A0057484F5F414D5F49000D0A2D2D2D205323
:2020A00074617274696E67206D61696E206C6F6F70202D2D2D0D0A000D0A2D2D2D204C6F51
:2020C0006F70202564202D2D2D0D0A000D0A4D5055363035303A200057484F5F414D5F4909
:2020E0003D3078253032580D0A004D6F746F72733A20424F544820464F52574152440D0AAE
:20210000004D6F746F72733A20424F54482053544F500D0A004D6F746F72733A20424F5474
:2021200048204241434B574152440D0A004D6F746F72733A204120464F52574152442C2041
:2021400042204241434B574152440D0A00544342303A204354524C413D253032582043541B
:20216000524C423D2530325820494E544354524C3D253032582043434D503D257520434E3C
:20218000543D25750D0A20435055494E54204354524C413D25303258204C564C305052492F
:2021A0003D25303258200D0A00435055494E54204354524C413D2530325820204C564C30E9
:2021C0005052493D2530325820205354415455533D253032580D0A005B53454920444F4E64
:2021E000455D0D0A00463A25642564256425640D0A005B4C45445D0D0A007E0D0A005B5087
:20220000574D5D0D0A00434E543D257520464C4147533D2530325820435055494E542E43DD
:2022200054524C413D2530325820535245473D25303258204953523D253032580D0A00524F
:202240006567203078253034583A203078253034580D0A004652414D455F53544152540DAA
:202260000A0025303458004652414D455F454E440D0A004572726F72733A2025750D0A0033
:202280000D0A3D3D3D20486F7473706F7420446574656374696F6E203D3D3D0D0A004D6104
:2022A0007820706978656C3A202825642C20256429203D2025750D0A00486F742063656EAC
:2022C00074726F69643A202825642E253032642C2025642E25303264290D0A0054687265F7
:2022E00073686F6C643A2025752C204D61783A2025750D0A00484F5453504F543A25752C22
:2023000025752C25750D0A000D0A3D3D3D20486F7473706F7420446574656374696F6E2088
:2023200028627566666572656429203D3D3D0D0A4E6F2076616C696420706978656C732059
:20234000696E206672616D652E0D0A000D0A3D3D3D20486F7473706F7420446574656374DE
:20236000696F6E2028627566666572656429203D3D3D0D0A004D617820706978656C3A20B3
:202380002825752C20257529203D2025750D0A00486F742063656E74726F69643A202825F4
:2023A000752E253032752C2025752E25303275290D0A005468726573686F6C643A2025758D
:2023C0002C204D61783A2025752C204D696E3A2025752C204176673A2025750D0A000D0AA7
:2023E0003D3D3D204D5055363035302054657374203D3D3D0D0A004D50553630353020635B
:202400006F6E6E656374656421202857484F5F414D5F49203D2030783638290D0A00416309
:2024200063656C3A20583D256420593D2564205A3D25640D0A004779726F3A2020583D2585
:202440006420593D2564205A3D25640D0A004D505536303530204E4F5420464F554E4421F7
:202460000D0A0025733A203078253032580D0A004D5354415455533A203078253032582C77
:20248000204D424155443A2025640D0A004275732053746174653A2000554E4B4E4F574EE4
:2024A0000D0A0049444C450D0A004F574E45520D0A00425553590D0A00466F756E64206454
:2024C0006576696365206174203078253032580D0A004E6F2049324320646576696365739F
:2024E00020666F756E64210D0A00546F74616C3A202564206465766963652873290D0A0016
:18250000427573207265736574206166746572207363616E0D0A00FF49
:00000001FF
