:100000000C9450000C945A000C945A000C945A0012
:100010000C945A000C945A000C945A000C945A00F8
:100020000C945A000C945A000C945A000C945A00E8
:100030000C945A000C945A000C945A000C945A00D8
:100040000C945A000C945A000C945A000C945A00C8
:100050000C945A000C945A000C945A000C945A00B8
:100060000C945A000C945A000C945A000C945A00A8
:100070000C945A000C945A000C945A000C945A0098
:100080000C945A000C945A000C945A000C945A0088
:100090000C945A000C945A000C945A000C945A0078
:1000A00011241FBECFEFCDBFDFE3DEBF0E943E04B1
:1000B0000C9465070C9400000F931F93CF93DF936C
:1000C0000F92CDB7DEB7082F998386E60E94B9025A
:1000D00081110EC084EE9EE40E94F9030E94FF028B
:1000E0008FEF9FEF0F90DF91CF911F910F910895A8
:1000F00089810E947703811103C087EF9EE4ECCFD2
:10010000802F0E947703811103C089E09FE4E4CF30
:1001100087E60E94B902811103C08AE19FE4DCCF27
:100120000E948B03082F0E949F03902FDBCF0F9319
:100130001F93CF93DF93CDB7DEB76E97CDBFDEBFF2
:10014000182F092F0E945C009F938F930F931F938A
:100150008CE29FE49F938F931F928EE18F938E0189
:100160000F5F1F4F1F930F930E945F04C8010E94EF
:10017000F903CDBFDEBF6E96CDBFDEBFDF91CF915D
:100180001F910F910895CF93DF930F92CDB7DEB7F4
:10019000898380ED0E94B902811579F089810E94DE
:1001A0007703811551F081ED0E94B902811529F084
:1001B0000F90DF91CF910C949F030E94FF028FEF6D
:1001C0000F90DF91CF9108950F931F93CF93DF93FB
:1001D000CDB7DEB7A897CDBFDEBF162F072F0E9481
:1001E000C3001F928F930F931F9381E49FE49F930B
:1001F0008F931F9288E28F938E010F5F1F4F1F9383
:100200000F930E945F04C8010E94F903CDBFDEBFB7
:10021000A896CDBFDEBFDF91CF911F910F910895BA
:1002200080ED0E94B9028BE60E94770380E00E9475
:1002300077030E94FF022FE78AE196E02150804079
:100240009040E1F700C00000089580ED0E94B902DF
:1002500085E70E94770381ED0E94B9020E949F0307
:10026000982F81E0983609F080E00895EF92FF9290
:100270000F931F93CF93DF93CDB7DEB72C97CDBFEE
:10028000DEBF8F83988769877A874B875C8780ED8D
:100290000E94B9028BE30E94770381ED0E94B902AC
:1002A0008E010F5F1F4F7E0186E0E80EF11C0E9459
:1002B0008B03F80181938F01EE15FF05C1F70E94B2
:1002C0009F0329813A81322723273227EF81F8853E
:1002D000208331832B813C81322723273227E985F4
:1002E000FA85208331832D81EB85FC8580832183F2
:1002F0002C96CDBFDEBFDF91CF911F910F91FF9064
:10030000EF900895EF92FF920F931F93CF93DF9397
:10031000CDB7DEB72C97CDBFDEBF8F8398876987B7
:100320007A874B875C8780ED0E94B90283E40E9444
:10033000770381ED0E94B9028E010F5F1F4F7E018E
:1003400086E0E80EF11C0E948B03F80181938F0177
:10035000EE15FF05C1F70E949F0329813A813227DC
:1003600023273227EF81F885208331832B813C813D
:10037000322723273227E985FA85208331832D818F
:10038000EB85FC85808321832C96CDBFDEBFDF917A
:10039000CF911F910F91FF90EF900895FF920F93CF
:1003A0001F93CF93DF93CDB7DEB7C854D109CDBF2C
:1003B000DEBF8EE49FE40E94F9030E9425018115AF
:1003C00009F46FC087E69FE40E94F903AE014D5B1C
:1003D0005F4FBE016B5B7F4FCE01895B9F4F0E94D9
:1003E000360125968FAD25978F9324968FAD249750
:1003F0008F9327968FAD27978F9326968FAD26974D
:100400008F9329968FAD29978F9328968FAD289734
:100410008F938EE89FE49F938F931F928CE3F82E27
:10042000FF928E010F5F1F4F1F930F930E945F0477
:10043000C8010E94F903AE01435C5F4FBE01615CDD
:100440007F4FCE018F5B9F4F0E9482018EAD8F93B5
:100450008DAD8F9321968FAD21978F938FAD8F9315
:1004600023968FAD23978F9322968FAD22978F93EC
:1004700086EA9FE49F938F931F92FF921F930F939F
:100480000E945F04C8010E94F903CDBFDEBFC85BB4
:10049000DF4FCDBFDEBFDF91CF911F910F91FF9056
:1004A00008958EEB9FE4C85BDF4FCDBFDEBFDF91C9
:1004B000CF911F910F91FF900C94F903E0E0F4E0CD
:1004C00088E0828B838BE0EAF8E084E1868381E038
:1004D00083838583089581E08093A50889EF90E068
:1004E0000197F1F700C0000008950F931F93CF9379
:1004F000DF93CDB7DEB7E297CDBFDEBF2091A60870
:100500008091A5081F922F931F928F9383ED9FE4F4
:100510009F938F931F9282E38F938E010F5F1F4FE4
:100520001F930F930E945F04C8010E94F9038091FA
:10053000A508182F137080EF9FE40E94F903CDBF28
:10054000DEBF8CEF9FE4113018F061F486E090E597
:100550000E94F903E296CDBFDEBFDF91CF911F91DC
:100560000F9108958DE090E5123091F385E190E5CB
:10057000EFCF0F931F93CF93DF93CDB7DEB7E29703
:10058000CDBFDEBF182F8091A50883FF06C08CE188
:1005900090E50E94F9030E946B021093A70880E582
:1005A00093EC2091A508203420F50197D1F7809194
:1005B000A5081F928F9383E390E59F938F931F92DB
:1005C00082E38F938E010F5F1F4F1F930F930E9443
:1005D0005F04C8010E94F9030E946B02CDBFDEBF19
:1005E00080E0E296CDBFDEBFDF91CF911F910F91EA
:1005F00008958091A508829583958170F2CF83E05C
:100600008093A40882E48A95F1F700C00895CF9200
:10061000DF92EF92FF920F931F93CF93DF93CDB7AB
:10062000DEB76E97CDBFDEBF8EE490E50E94F90382
:1006300081E0E82EF12C0EE110E06E012FEFC21ADE
:10064000D20A8E2D880F0E94B902811591F0FF9277
:10065000EF9286E690E59F938F931F920F93DF9220
:10066000CF920E945F04C6010E94F9031F5FCDBFB5
:10067000DEBF0E94FF028FE097E20197F1F700C012
:1006800000009FEFE91AF90A20E8E216F104C9F622
:10069000111116C08FE790E50E94F9030E946B02CA
:1006A0008DEA90E50E94F9036E96CDBFDEBFDF9123
:1006B000CF911F910F91FF90EF90DF90CF90089511
:1006C0001F921F9387E990E59F938F931F928EE16E
:1006D0008F937E018FEFE81AF80AFF92EF920E9443
:1006E0005F04C7010E94F903CDBFDEBFD7CF80935F
:1006F000A80820E533EC9091A508892F807496FD19
:1007000004C021503040B9F708958091A508829522
:1007100083958170089580E593EC2091A50827FDCD
:1007200008C00197D1F784EC90E50E94F9038FEFA0
:1007300008958091A80892E09093A40808950F93DB
:100740001F93CF93DF93CDB7DEB7EC97CDBFDEBF5E
:1007500080E593EC2091A50827FD24C00197D1F7EF
:100760002091A5088091A508220F330B37FB99270C
:1007700090F91F929F931F928F9385EE90E59F9320
:100780008F931F928CE38F938E010F5F1F4F1F93E8
:100790000F930E945F04C8010E94F903CDBFDEBF22
:1007A0008FEF05C08091A80897E09093A408EC967D
:1007B000CDBFDEBFDF91CF911F910F9108951092B1
:1007C000E205E0E4F4E081E0818382E08283E0E21C
:1007D000F8E08DE890E28087918783E0878380EC62
:1007E000868308959091240895FFFCCF809322087A
:1007F0000895CF93DF93EC018881811103C0DF91CD
:10080000CF91089521960E94F203F6CF809124089B
:1008100087FFFCCF809120080895E0EEF5E082810B
:1008200080618283E0EAF4E081E0818382E0828378
:10083000E0E4F8E08DE890E28087918783E08783A9
:1008400080EC868308959091440895FFFCCF8093B7
:1008500042080895CF93DF93EC018881811103C092
:10086000DF91CF91089521960E942304F6CF8091C5
:10087000440887FFFCCF80914008089588ED90E000
:1008800084BF9093600084BF909361002FE78AE15A
:1008900096E0215080409040E1F700C000000E94A7
:1008A0000D048EEC9EE40E942A042FE78AE196E074
:1008B000215080409040E1F700C00000FFCFAEE043
:1008C000B0E0E5E6F4E00C94440786E08C832B89E5
:1008D0003C8929833A838D899E89813030E893074A
:1008E00010F080E090E801978D839E83AE01475E13
:1008F0005F4F6F89788DCE0101960E9492044D81E1
:100900005E8157FD0BC0EF81F8854E175F070CF431
:10091000FA012B893C89E20FF31F10822E96E2E048
:100920000C945D07ACE0B0E0E8E9F4E00C94370724
:100930005C016B017A01FC0116821782838181FFC1
:10094000D3C12AE0522EF5012381F60123FD8591C2
:1009500023FF81916F01811509F42CC1853239F48F
:1009600023FD959123FF91916F01953229F4B501F3
:1009700090E00E948D06E7CF30E0712C00E010E09F
:10098000103210F59B32C9F050F49032B9F0933226
:10099000C9F09E3261F516FD0DC1106405C09D328F
:1009A00079F0903399F41160F60123FD959123FFBE
:1009B00091916F019111E4CF23C012601460F4CFC4
:1009C0001860F2CF1061F0CF17FD1AC080ED890FCB
:1009D0008A30F8F616FF05C0759C800D1124782E1C
:1009E000E3CF059D800D1124082F1062DDCF9C36CA
:1009F00011F41068D9CF9C3409F440C09836A1F2A4
:100A0000892F8F7D85548330D8F1933609F45FC0E8
:100A1000933709F46AC0933509F476C0943619F017
:100A2000993609F0A2C0F70117FF98C06191719142
:100A3000819191917F011F7697FF03C00E942C073F
:100A400010682AE030E04E014FEF841A940AA401A6
:100A50000E94CE06682E681816FFD2C0812F8E7FA6
:100A6000671408F0CCC014FF1DC112FD11C11E7E19
:100A7000972C812F867809F4CEC00FC131E094CF36
:100A8000311509F1F8E0EF0EF11C8FE3898391E055
:100A9000692E712C4E018FEF881A980A1F7713FD6B
:100AA00004C06016710408F43FC06114710409F0B9
:100AB00042C0011509F447CFB50180E290E00E94E1
:100AC0008D060150F6CF44E0E40EF11CDECFF701B5
:100AD00080818983F2E0EF0EF11C81E0682E712C99
:100AE0004E014FEF841A940AD9CFF701819091906B
:100AF0007F01672D70E016FD02C06FEF7FEFC4012C
:100B00000E9482063C01CACFF701819091907F013B
:100B1000672D70E016FD02C06FEF7FEFC4010E94E9
:100B200077063C011068BBCFB50180E290E00E94DF
:100B30008D060150B6CFF40117FD859117FF819105
:100B40004F01B50190E00E948D0681E0011101C0C6
:100B500080E0081BF1E06F1A7108A7CF61917191D5
:100B6000872F880F880B982F65CF9537C9F41F7E84
:100B70001C872AE030E0FC85F7FF3BC0F70161915C
:100B80007191819191917F014E014FEF841A940AE6
:100B9000A4010E94CE06682E68181C851F775CCFC2
:100BA000812F897F8C87903799F058F49835B9F068
:100BB0009F36E1F0F501868197812C96EFE00C9449
:100BC00050079837B9F714FD06C020E130E0D3CFC5
:100BD0009C8590619C87EC85E460EC87F6CF14FFE0
:100BE00002C016601C8720E132E0C5CF28E030E06B
:100BF000C2CFF7016191719180E090E0C4CF182FCE
:100C0000962C14FF36CFFE01E60DF11D8081803356
:100C100009F041C0197E13FD0EC010FF4FC0762CA5
:100C2000901618F4700E7918902E802F89190915D6
:100C300008F480E0980E901608F042C0091914FFDD
:100C400041C0B50180E390E00E948D0612FF09C00B
:100C500088E590E011FD02C088E790E0B5010E94B0
:100C60008D066714D0F14E018FEF881A980A6A94A6
:100C7000FE013296E60DF11D3F01F30182913F0125
:100C8000B50190E00E948D0668147904B1F711CF88
:100C9000972C182FB8CF12FD02C09394BCCF939419
:100CA0009394B9CF972C182FE4CEB50180E290E051
:100CB0000E948D0683948016C0F3B7CF892CFBCF9A
:100CC00000E0BDCF812F867861F280E211FD8BE2DA
:100CD00017FD8DE2B50190E0C2CFB50180E390E051
:100CE0000E948D067A94BDCF8FEF9FEF66CFFC01F7
:100CF0000590615070400110D8F7809590958E0F47
:100D00009F1F0895FC016150704001900110D8F7B9
:100D1000809590958E0F9F1F0895A3E0B0E0E3E9C2
:100D2000F6E00C944307182F99836A837B83DB01D9
:100D300013968C9181FD09C01FEFBFEFB983812FFE
:100D400099812396E3E00C945C0782FF1BC0EA8143
:100D5000FB8126813781848195812817390754F4D6
:100D60000190F081E02DCF010196AA81BB818D9386
:100D70009D931083EA81FB8186819781019686830A
:100D80009783DDCFAA81BB811896ED91FD911A97CB
:100D9000BD01812F0995892B69F3CECFFA01AA27CE
:100DA000283051F1203181F1E8946F936E7F6E5FAE
:100DB0007F4F8F4F9F4FAF4FB1E03ED0B4E03CD05C
:100DC000670F781F891F9A1FA11D680F791F8A1F3F
:100DD000911DA11D6A0F711D811D911DA11D20D0A6
:100DE00009F468943F912AE0269F11243019305D60
:100DF0003193DEF6CF010895462F4770405D419351
:100E0000B3E00FD0C9F7F6CF462F4F70405D4A339D
:100E100018F0495D31FD4052419302D0A9F7EACF65
:100E2000B4E0A6959795879577956795BA95C9F794
:100E300000976105710508959B01AC010A2E069487
:100E40005795479537952795BA95C9F7620F731F40
:100E5000841F951FA01D08959095809570956195AC
:100E60007F4F8F4F9F4F08952F923F924F925F92E7
:100E70006F927F928F929F92AF92BF92CF92DF92AA
:100E8000EF92FF920F931F93CF93DF93CDB7DEB70F
:100E9000CA1BDB0BCDBFDEBF09942A88398848887E
:100EA0005F846E847D848C849B84AA84B984C88486
:100EB000DF80EE80FD800C811B81AA81B981CE0F7D
:0E0EC000D11DCDBFDEBFED010895F894FFCF28
:100ECE005465737420446562756767696E67205058
:100EDE006F72740D0A0053544152542057524954A4
:100EEE0045204641494C0D0A005752495445204869
:100EFE00494748204641494C0D0A0057524954452E
:100F0E00204C4F57204641494C0D0A005354415234
:100F1E00542052454144204641494C0D0A00526529
:100F2E0067203078253034583A20307825303458C0
:100F3E000D0A0025733A203078253032580D0A00FC
:100F4E000D0A3D3D3D204D5055363035302054650F
:100F5E007374203D3D3D0D0A004D505536303530F1
:100F6E0020636F6E6E656374656421202857484F49
:100F7E005F414D5F49203D2030783638290D0A00FB
:100F8E00416363656C3A20583D256420593D2564C4
:100F9E00205A3D25640D0A004779726F3A20205879
:100FAE003D256420593D2564205A3D25640D0A00D7
:100FBE004D505536303530204E4F5420464F554EFD
:100FCE0044210D0A004D5354415455533A20307864
:100FDE00253032582C204D424155443A2025640D7F
:100FEE000A004275732053746174653A2000554EA1
:100FFE004B4E4F574E0D0A0049444C450D0A004FBB
:10100E00574E45520D0A00425553590D0A0042756E
:10101E0073206172626974726174696F6E206C6F95
:10102E0073740D0A00537461727420544F2C204D4A
:10103E005354415455533D3078253032580D0A00E3
:10104E000D0A5363616E6E696E67204932432062EA
:10105E0075732E2E2E0D0A00466F756E6420646514
:10106E0076696365206174203078253032580D0A18
:10107E00004E6F20493243206465766963657320A4
:10108E00666F756E64210D0A00546F74616C3A20A0
:10109E002564206465766963652873290D0A00420C
:1010AE007573207265736574206166746572207342
:1010BE0063616E0D0A00526561642041434B2054FA
:1010CE00696D656F75742028524946206E6F7420C5
:1010DE00736574290D0A0052656164204E41434BBD
:1010EE0020544F2C204D5354415455533D307825A8
:0E10FE003032582C205249463D25640D0A0020
:00000001FF
