:100000000C9450000C945A000C945A000C945A0012
:100010000C945A000C945A000C945A000C945A00F8
:100020000C945A000C945A000C945A000C945A00E8
:100030000C945A000C945A000C945A000C945A00D8
:100040000C945A000C945A000C945A000C945A00C8
:100050000C945A000C945A000C945A000C945A00B8
:100060000C945A000C945A000C945A000C945A00A8
:100070000C945A000C945A000C945A000C945A0098
:100080000C945A000C945A000C945A000C945A0088
:100090000C945A000C945A000C945A000C945A0078
:1000A00011241FBECFEFCDBFDFE3DEBF0E94940857
:1000B0000C94560C0C94000088ED84BF10926100E3
:1000C0008091630080FDFCCF08958DE69BE50E9442
:1000D000800880EB98E50E94800883ED98E50E94F7
:1000E000800880EB98E50E94800883EF98E50E94E5
:1000F00080080E9491078BE099E50E94800887E0C4
:1001000094E20E942B0188E299E50E9480080E94F7
:1001100026052FEF81EE94E0215080409040E1F7DA
:1001200000C0000084E499E50E94800868E579E554
:1001300085E70E947E0181E699E50C948008FF9294
:100140000F931F93CF93DF93CDB7DEB7A897CDBFA3
:10015000DEBF9F938F9380E899E59F938F931F92C3
:1001600088E2F82EFF928E010F5F1F4F1F930F93AF
:100170000E945009C8010E9480080E94D1062FEFFA
:1001800080E792E0215080409040E1F700C00000FD
:100190000E940F020E946D0484E999E50E94800884
:1001A00085E70E9457011F928F9380EA99E59F93FC
:1001B0008F931F92FF921F930F930E9450090E94EA
:1001C000E405C8010E948008CDBFDEBFA896CDBF60
:1001D000DEBFDF91CF911F910F91FF9008950F9394
:1001E0001F93CF93DF930F92CDB7DEB7082F99837C
:1001F00086E60E945307811112C00E9489070E945F
:10020000D1068FE891E00197F1F700C000008FEF71
:100210009FEF0F90DF91CF911F910F9108958981EA
:100220000E940108811549F3802F0E940108811561
:1002300021F387E60E9453078115F9F20E94150801
:10024000082F0E942508EFE8F1E03197F1F700C090
:100250000000902FDECF0F931F93CF93DF93CDB786
:10026000DEB76E97CDBFDEBF182F092F0E94EF00BB
:100270009F938F930F931F9385E19AE59F938F939D
:100280001F928EE18F938E010F5F1F4F1F930F936D
:100290000E945009C8010E948008CDBFDEBF6E9643
:1002A000CDBFDEBFDF91CF911F910F910895CF9306
:1002B000DF930F92CDB7DEB7898380ED0E9453079D
:1002C000811109C00E9489070E94D1068FEF0F900B
:1002D000DF91CF91089589810E940108811591F3E2
:1002E00081ED0E945307811569F30E942508EFE80C
:1002F000F1E03197F1F700C00000E9CF0F931F93B1
:10030000CF93DF93CDB7DEB7A897CDBFDEBF162F53
:10031000072F0E9457011F928F930F931F938AE21A
:100320009AE59F938F931F9288E28F938E010F5FC0
:100330001F4F1F930F930E945009C8010E9480080D
:10034000CDBFDEBFA896CDBFDEBFDF91CF911F919D
:100350000F910895CF93DF93C8EED3E080E090E84B
:100360000E94EF0083FD0CC08FE99FE00197F1F739
:1003700000C00000219791F780E0DF91CF910895B0
:1003800081E0FBCFCF92DF92EF92FF920F931F930A
:10039000CF93DF93F82EE92EEB018A0186E60E94C7
:1003A000530781110CC00E948907DF91CF911F91E3
:1003B0000F91FF90EF90DF90CF900C94D1068E2D8F
:1003C0000E9401088F2D0E94010887E60E945307B2
:1003D000811549F36E01E12CF12C01501109E01651
:1003E000F106A0F0C00FD11F0E94250888838FE876
:1003F00091E00197F1F700C00000DF91CF911F91CC
:100400000F91FF90EF90DF90CF9008950E94150814
:10041000F60181936F01FFEFEF1AFF0AE0CF6F92B1
:100420007F928F929F92AF92BF92CF92DF92EF9284
:10043000FF920F931F93CF93DF93CDB7DEB76497EF
:10044000CDBFDEBF0E94D1068FE19EE40197F1F798
:1004500000C0000087E39AE50E948008612C712C9F
:10046000630183017E019FEFE91AF90AA12CB12CE7
:10047000430124E0920EC4018A0D9B1D0E94EF00EF
:100480008F3F980711F40F5F1F4F9F938F9385E461
:100490009AE59F938F931F9284E18F93FF92EF923F
:1004A0000E945009C7010E948008CDBFDEBF9FE1B6
:1004B000A916B10409F047C08DE69BE50E948008AB
:1004C0002FEFC21AD20A8C2D837090E0892B41F451
:1004D0000E94D1068FEC97E00197F1F700C0000071
:1004E00090E2690E711C28E1C216D10409F0BECF5A
:1004F0008AE49AE50E9480080115110591F01F9386
:100500000F9386E59AE59F938F931F9284E18F93D3
:10051000FF92EF920E945009C7010E948008CDBF50
:10052000DEBF6496CDBFDEBFDF91CF911F910F91EB
:10053000FF90EF90DF90CF90BF90AF909F908F9003
:100540007F906F9008958CE20E9479088FEFA81A2F
:10055000B80A91CFCF92DF92EF92FF920F931F9341
:10056000CF93DF93CDB7DEB72897CDBFDEBF8983AA
:100570009A836B837C834D835E830E94D1068FE1D7
:100580009EE40197F1F700C000001F821886C12C7D
:10059000D12C86018F8198859C5F0E94EF00EF80AF
:1005A000F884EFEFEE1AFE0A8F3F9807F1F0081774
:1005B000190770F42F812F71C22EEF81F88525E085
:1005C000F695E7952A95E1F7EF83F887DF808C01B0
:1005D0008E2D8F7790E0892B41F40E94D1068FE910
:1005E0009FE00197F1F700C00000EF82F886E11468
:1005F00093E0F90679F6E981FA81C082EB81FC810A
:10060000D082ED81FE81008311832896CDBFDEBFAD
:10061000DF91CF911F910F91FF90EF90DF90CF90DE
:1006200008958F929F92AF92BF92CF92DF92EF92F6
:10063000FF920F931F93CF93DF93CDB7DEB7289729
:10064000CDBFDEBF89839A836B837C834D835E83BA
:100650000E94D1068FE19EE40197F1F700C00000EF
:1006600000E010E01F8218864801540174018FEFEA
:10067000D82ECD2CC8019C5F0E94EF000F5F1F4F4A
:100680008F3F9807F1F08C159D0508F46C01E81672
:10069000F90608F47C01880E991EA11CB11C8F81FB
:1006A000988501968F839887802F8F7790E0892B8C
:1006B00041F40E94D106EFE9FFE03197F1F700C065
:1006C00000000115F3E01F07A9F6E981FA81C08255
:1006D000D182EB81FC81E082F1828F819885009745
:1006E00049F09C0140E050E0B401C5010E942E0990
:1006F0002F8338878F819885ED81FE818083918358
:100700002896CDBFDEBFDF91CF911F910F91FF9053
:10071000EF90DF90CF90BF90AF909F908F90089513
:100720002F923F924F925F926F927F928F929F9201
:10073000AF92BF92CF92DF92EF92FF920F931F93EF
:10074000CF93DF93CDB7DEB72C97CDBFDEBF8B87BE
:100750009C870E94D1068FE19EE40197F1F700C0CB
:10076000000000E010E019861A8668017601260173
:10077000360146015601C8019C5F0E94EF00180136
:100780002FEF221A320A8F3F9807B1F129853A8557
:100790002817390710F489879A872B853C852817F5
:1007A0003907E8F4AC01421B530B202F2F7130E0C6
:1007B000DA010E941309860E971EA81EB91E980121
:1007C00065E0369527956A95E1F70E941309460E74
:1007D000571E681E791EC40ED51EE11CF11C822D09
:1007E0008F7790E0892B41F40E94D1068FE99FE03A
:1007F0000197F1F700C000008101211493E0390650
:1008000009F0B9CFC114D104E104F10479F160E039
:10081000782D892D9A2D9601A7010E942E09890114
:1008200060E0742D852D962D9601A7010E942E095A
:10083000822F532F9801482F69857A858B859C8557
:100840002C96CDBFDEBFDF91CF911F910F91FF900E
:10085000EF90DF90CF90BF90AF909F908F907F9060
:100860006F905F904F903F902F90089580E05CE0F4
:1008700000E010E1DFCF0F931F93CF93DF93CDB74D
:10088000DEB72F97CDBFDEBF8F87AE01475F5F4FCB
:10089000BE01655F7F4FCE010D960E9411030B854F
:1008A0001C858D859E859801281B390B8F85A82F67
:1008B000B0E00E94130924E630E040E050E00E94DE
:1008C0002E09C801821B930B2F96CDBFDEBFDF918F
:1008D000CF911F910F910C9490039F92AF92BF9272
:1008E000CF92DF92EF92FF920F931F93CF93DF93FC
:1008F000CDB7DEB7CC55D109CDBFDEBF83E69AE5D3
:100900000E948008AE01475A5F4FBE01655A7F4F73
:10091000CE01845A9F4F0E94AA026B968FAD6B97AF
:100920008F936A968FAD6A978F936C968FAD6C9705
:100930001F928F936D968FAD6D971F928F9381E865
:100940009AE59F938F931F9280E5F82EFF928E0178
:100950000F5F1F4F1F930F930E945009C8010E9401
:10096000800884E10E943B04B62EA72E62962FAF2A
:10097000629763963FAF639764964FAF64976596AF
:100980005FAF659768968FAF689769969FAF6997D5
:10099000922EE32ED42EC52E84E6D89E90011124EB
:1009A0001F923F931F92CF92989EC00111241F92D5
:1009B0009F931F92EF928CE99AE59F938F931F92DA
:1009C000FF921F930F930E945009C8010E94800854
:1009D000AF92BF9269968FAD69978F9368968FADEE
:1009E00068978F938FEB9AE59F938F931F92FF9257
:1009F0001F930F930E945009CDBFDEBFC8010E9414
:100A00008008AF92BF92CF92DF92EF929F9288EDD3
:100A10009AE59F938F931F92FF921F930F930E94CB
:100A20005009C8010E948008CDBFDEBFC45ADF4F05
:100A3000CDBFDEBFDF91CF911F910F91FF90EF905F
:100A4000DF90CF90BF90AF909F90089580ED0E946F
:100A500053078BE60E94010880E00E9401080E9473
:100A600089072FEF81EE94E0215080409040E1F71C
:100A700000C00000089580ED0E94530785E70E94A2
:100A8000010881ED0E9453070E942508982F81E0FC
:100A9000983609F080E00895EF92FF920F931F932C
:100AA000CF93DF93CDB7DEB72C97CDBFDEBF8F835B
:100AB000988769877A874B875C8780ED0E94530708
:100AC0008BE30E94010881ED0E9453078E010F5FA6
:100AD0001F4F7E0186E0E80EF11C0E941508F80108
:100AE00081938F01EE15FF05C1F70E94250829812A
:100AF0003A81322723273227EF81F88520833183FB
:100B00002B813C81322723273227E985FA852083F0
:100B100031832D81EB85FC85808321832C96CDBF8D
:100B2000DEBFDF91CF911F910F91FF90EF9008955D
:100B3000EF92FF920F931F93CF93DF93CDB7DEB762
:100B40002C97CDBFDEBF8F83988769877A874B87C5
:100B50005C8780ED0E94530783E40E94010881EDC9
:100B60000E9453078E010F5F1F4F7E0186E0E80E43
:100B7000F11C0E941508F80181938F01EE15FF0505
:100B8000C1F70E94250829813A813227232732277D
:100B9000EF81F885208331832B813C813227232705
:100BA0003227E985FA85208331832D81EB85FC8509
:100BB000808321832C96CDBFDEBFDF91CF911F9123
:100BC0000F91FF90EF900895FF920F931F93CF9393
:100BD000DF93CDB7DEB7C854D109CDBFDEBF8BEEF2
:100BE0009AE50E9480080E943B05811509F46FC0B8
:100BF00084E09BE50E948008AE014D5B5F4FBE0123
:100C00006B5B7F4FCE01895B9F4F0E944C05259601
:100C10008FAD25978F9324968FAD24978F9327962A
:100C20008FAD27978F9326968FAD26978F93299612
:100C30008FAD29978F9328968FAD28978F938BE24E
:100C40009BE59F938F931F928CE3F82EFF928E016A
:100C50000F5F1F4F1F930F930E945009C8010E94FE
:100C60008008AE01435C5F4FBE01615C7F4FCE01E7
:100C70008F5B9F4F0E9498058EAD8F938DAD8F93A4
:100C800021968FAD21978F938FAD8F9323968FAD44
:100C900023978F9322968FAD22978F9383E49BE5C2
:100CA0009F938F931F92FF921F930F930E9450095F
:100CB000C8010E948008CDBFDEBFC85BDF4FCDBF3B
:100CC000DEBFDF91CF911F910F91FF9008958BE5CB
:100CD0009BE5C85BDF4FCDBFDEBFDF91CF911F919A
:100CE0000F91FF900C948008E0E4F4E083E08183AE
:100CF000868380E281838683E0E681E08183868348
:100D00000895E0E4F4E081E0858382E0868308953D
:100D1000E0E4F4E081E0868382E08583089583E067
:100D2000809346040895811519F014F00C948106FF
:100D300011F00C94880683E080934604089580E2C5
:100D40008093450481E080936604089580E2809357
:100D5000460481E080936504089580E28093460410
:100D600081E0809366040895811519F014F00C94C5
:100D70009F0611F00C94A6060C94AD06E0E0F4E09A
:100D800088E0828B838BE0EAF8E08FE0868381E065
:100D9000838385838FE39CE90197F1F700C000000E
:100DA00008951092A3088CE08093010488E099E0F4
:100DB000809306042AE62A95F1F700C08093050483
:100DC0002AE62A95F1F700C0915091F794E09093AC
:100DD00006042AE62A95F1F700C0809305042AE666
:100DE0002A95F1F700C0909305049AE69A95F1F7D9
:100DF00000C09CE09093020480931204809313043B
:100E00008FE08093A60881E08093A3088093A508D3
:100E10008FE891E00197F1F700C0000008950F936B
:100E20001F93CF93DF93CDB7DEB7E297CDBFDEBF81
:100E30002091A6088091A5081F922F931F928F934F
:100E400080E79BE59F938F931F9282E38F938E01A0
:100E50000F5F1F4F1F930F930E945009C8010E94FC
:100E600080088091A508182F13708DE89BE50E94DB
:100E70008008CDBFDEBF89E99BE5113018F061F431
:100E800083EA9BE50E948008E296CDBFDEBFDF913A
:100E9000CF911F910F9108958AEA9BE5123091F34B
:100EA00082EB9BE5EFCFCF93DF930F92CDB7DEB709
:100EB00089838091A5088370833011F0811108C067
:100EC0000E94D1068FE99FE00197F1F700C0000072
:100ED0008091A5088C7029F08CE08093A5080E9471
:100EE000D10699819093A70880E593EC2091A508FD
:100EF000203448F40197D1F70E94D10680E00F908A
:100F0000DF91CF9108958091A50882958395817096
:100F1000F6CF83E08093A40885E38A95F1F700007B
:100F20000895CF92DF92EF92FF920F931F93CF938A
:100F3000DF93CDB7DEB76E97CDBFDEBF83EF98E509
:100F40000E94800881E0E82EF12C0EE110E06E0195
:100F50002FEFC21AD20A8E2D880F0E9453078115D7
:100F600091F0FF92EF9289EB9BE59F938F931F92F5
:100F70000F93DF92CF920E945009C6010E94800811
:100F80001F5FCDBFDEBF0E9489078FE39FE10197FE
:100F9000F1F700C000009FEFE91AF90A20E8E21615
:100FA000F104C9F6111116C082ED9BE50E9480087C
:100FB0000E94D10680E09CE50E9480086E96CDBF1D
:100FC000DEBFDF91CF911F910F91FF90EF90DF90E7
:100FD000CF9008951F921F938AEE9BE59F938F9366
:100FE0001F928EE18F937E018FEFE81AF80AFF922D
:100FF000EF920E945009C7010E948008CDBFDEBF5A
:10100000D7CF8093A80820E533EC9091A508892FCD
:10101000807496FD04C021503040B9F70895809146
:10102000A508829583958170089580E593EC2091C1
:10103000A50827FD04C00197D1F78FEF089580918F
:10104000A80892E09093A408089580E593EC20917D
:10105000A50827FD04C00197D1F78FEF089580916F
:10106000A80897E09093A40808951092E205E0E4A0
:10107000F4E081E0818382E08283E0E2F8E08AE0CC
:101080009AE18087918783E0878380EC8683089547
:101090009091240895FFFCCF809322080895CF9368
:1010A000DF93EC018881811103C0DF91CF91089516
:1010B00021960E944808F6CF8091240887FFFCCF34
:1010C000809120080895E0EAF4E081E0818382E0E5
:1010D0008283E0EEF5E082818F7C8283E0E4F8E0B9
:1010E0008AE09AE18087918783E0878380EC86831A
:1010F00008959091440895FFFCCF8093420808958D
:10110000CF93DF93EC018881811103C0DF91CF91F0
:10111000089521960E947908F6CF8091440887FFB0
:10112000FCCF8091400808950E945C002FEF81EE73
:1011300094E0215080409040E1F700C000000E9400
:1011400063080E94BE062FEF81EE94E0215080409C
:101150009040E1F700C000000E94D1062FEF80E729
:1011600092E0215080409040E1F700C000000E94D2
:10117000D1062FEF80E792E0215080409040E1F7C8
:1011800000C000000E94D1062FEF80E792E02150BE
:1011900080409040E1F700C0000080E28093A1040D
:1011A0000E9465000E947406C0E0D0E010E2DF5F9C
:1011B0008D2F90E00E949F008D2F64E10E942209F4
:1011C000911110C0C23009F1C33031F1C130B1F01A
:1011D0000E9481060E949F0682EB99E50E9480088A
:1011E000CF5FC3701093A7042FEF89E698E12150D9
:1011F00080409040E1F700C00000D9CF0E948F06E8
:101200000E94AD0689EC99E5E9CF0E9488060E940C
:10121000A6068DED99E5E2CF0E9481060E94A60602
:1012200085EF99E5DBCFA29FB001B39FC001A39FDB
:10123000700D811D1124911DB29F700D811D11240F
:10124000911D0895992778E0880F991F961708F047
:10125000961B881F7A95C9F780950895A1E21A2EEA
:10126000AA1BBB1BFD010DC0AA1FBB1FEE1FFF1F4A
:10127000A217B307E407F50720F0A21BB30BE40B9A
:10128000F50B661F771F881F991F1A9469F76095E1
:101290007095809590959B01AC01BD01CF0108959B
:1012A000AEE0B0E0E6E5F9E00C94350C86E08C8326
:1012B0002B893C8929833A838D899E89813030E846
:1012C000930710F080E090E801978D839E83AE0134
:1012D000475E5F4F6F89788DCE0101960E9483092A
:1012E0004D815E8157FD0BC0EF81F8854E175F077A
:1012F0000CF4FA012B893C89E20FF31F10822E9621
:10130000E2E00C944E0CACE0B0E0E9E8F9E00C94BB
:10131000280C5C016B017A01FC0116821782838123
:1013200081FFD3C12AE0522EF5012381F60123FD6E
:10133000859123FF81916F01811509F42CC18532BC
:1013400039F423FD959123FF91916F01953229F492
:10135000B50190E00E947E0BE7CF30E0712C00E0F9
:1013600010E0103210F59B32C9F050F49032B9F011
:101370009332C9F09E3261F516FD0DC1106405C0AF
:101380009D3279F0903399F41160F60123FD959127
:1013900023FF91916F019111E4CF23C0126014607B
:1013A000F4CF1860F2CF1061F0CF17FD1AC080EDB6
:1013B000890F8A30F8F616FF05C0759C800D112440
:1013C000782EE3CF059D800D1124082F1062DDCF0C
:1013D0009C3611F41068D9CF9C3409F440C098367B
:1013E000A1F2892F8F7D85548330D8F1933609F48B
:1013F0005FC0933709F46AC0933509F476C0943618
:1014000019F0993609F0A2C0F70117FF98C0619151
:101410007191819191917F011F7697FF03C00E9486
:101420001D0C10682AE030E04E014FEF841A940A38
:10143000A4010E94BF0B682E681816FFD2C0812F2E
:101440008E7F671408F0CCC014FF1DC112FD11C1BE
:101450001E7E972C812F867809F4CEC00FC131E013
:1014600094CF311509F1F8E0EF0EF11C8FE3898379
:1014700091E0692E712C4E018FEF881A980A1F7720
:1014800013FD04C06016710408F43FC061147104B8
:1014900009F042C0011509F447CFB50180E290E0A0
:1014A0000E947E0B0150F6CF44E0E40EF11CDECF2B
:1014B000F70180818983F2E0EF0EF11C81E0682E54
:1014C000712C4E014FEF841A940AD9CFF701819005
:1014D00091907F01672D70E016FD02C06FEF7FEFE6
:1014E000C4010E94730B3C01CACFF7018190919017
:1014F0007F01672D70E016FD02C06FEF7FEFC40122
:101500000E94680B3C011068BBCFB50180E290E0FF
:101510000E947E0B0150B6CFF40117FD859117FF95
:1015200081914F01B50190E00E947E0B81E0011195
:1015300001C080E0081BF1E06F1A7108A7CF61912C
:101540007191872F880F880B982F65CF9537C9F435
:101550001F7E1C872AE030E0FC85F7FF3BC0F701C7
:1015600061917191819191917F014E014FEF841AA8
:10157000940AA4010E94BF0B682E68181C851F776F
:101580005CCF812F897F8C87903799F058F49835FC
:10159000B9F09F36E1F0F501868197812C96EFE056
:1015A0000C94410C9837B9F714FD06C020E130E0E7
:1015B000D3CF9C8590619C87EC85E460EC87F6CF67
:1015C00014FF02C016601C8720E132E0C5CF28E07E
:1015D00030E0C2CFF7016191719180E090E0C4CF1B
:1015E000182F962C14FF36CFFE01E60DF11D8081D9
:1015F000803309F041C0197E13FD0EC010FF4FC0AB
:10160000762C901618F4700E7918902E802F891968
:10161000091508F480E0980E901608F042C00919E8
:1016200014FF41C0B50180E390E00E947E0B12FFE1
:1016300009C088E590E011FD02C088E790E0B5019F
:101640000E947E0B6714D0F14E018FEF881A980A22
:101650006A94FE013296E60DF11D3F01F30182917D
:101660003F01B50190E00E947E0B68147904B1F748
:1016700011CF972C182FB8CF12FD02C09394BCCF76
:1016800093949394B9CF972C182FE4CEB50180E2B0
:1016900090E00E947E0B83948016C0F3B7CF892C14
:1016A000FBCF00E0BDCF812F867861F280E211FD93
:1016B0008BE217FD8DE2B50190E0C2CFB50180E36A
:1016C00090E00E947E0B7A94BDCF8FEF9FEF66CFA4
:1016D000FC010590615070400110D8F780959095FD
:1016E0008E0F9F1F0895FC01615070400190011002
:1016F000D8F7809590958E0F9F1F0895A3E0B0E0D6
:10170000E4E8FBE00C94340C182F99836A837B8304
:10171000DB0113968C9181FD09C01FEFBFEFB983E8
:10172000812F99812396E3E00C944D0C82FF1BC01E
:10173000EA81FB81268137818481958128173907C9
:1017400054F40190F081E02DCF010196AA81BB8174
:101750008D939D931083EA81FB8186819781019609
:1017600086839783DDCFAA81BB811896ED91FD9189
:101770001A97BD01812F0995892B69F3CECFFA0104
:10178000AA27283051F1203181F1E8946F936E7FC0
:101790006E5F7F4F8F4F9F4FAF4FB1E03ED0B4E0B1
:1017A0003CD0670F781F891F9A1FA11D680F791FF2
:1017B0008A1F911DA11D6A0F711D811D911DA11D03
:1017C00020D009F468943F912AE0269F1124301913
:1017D000305D3193DEF6CF010895462F4770405DAE
:1017E0004193B3E00FD0C9F7F6CF462F4F70405D5D
:1017F0004A3318F0495D31FD4052419302D0A9F7B8
:10180000EACFB4E0A6959795879577956795BA95B1
:10181000C9F700976105710508959B01AC010A2E77
:1018200006945795479537952795BA95C9F7620F4E
:10183000731F841F951FA01D089590958095709526
:1018400061957F4F8F4F9F4F08952F923F924F92F8
:101850005F926F927F928F929F92AF92BF92CF9240
:10186000DF92EF92FF920F931F93CF93DF93CDB749
:10187000DEB7CA1BDB0BCDBFDEBF09942A883988CF
:1018800048885F846E847D848C849B84AA84B98418
:10189000C884DF80EE80FD800C811B81AA81B98124
:1018A000CE0FD11DCDBFDEBFED010895F894FFCF5F
:1018B0003D3D3D3D3D3D3D3D3D3D3D3D3D3D3D3D58
:1018C0003D3D3D3D3D3D3D3D3D3D3D3D3D3D3D3D48
:1018D0000D0A0041546D656761343830392040206D
:1018E00031364D487A202D20493243205465737497
:1018F0000D0A000D0A5363616E6E696E67204932EE
:1019000043206275732E2E2E0D0A000D0A4D4C5881
:101910003930363430204465766963652049442087
:10192000746573743A0D0A000D0A496E6974696131
:101930006C697A696E67204D5055363035302E2EE1
:101940002E0D0A004D5055363035302057484F5F28
:10195000414D5F493A0D0A0057484F5F414D5F497D
:10196000000D0A2D2D2D205374617274696E67204D
:101970006D61696E206C6F6F70202D2D2D0D0A002A
:101980000D0A2D2D2D204C6F6F70202564202D2DDC
:101990002D0D0A000D0A4D5055363035303A2000D5
:1019A00057484F5F414D5F493D3078253032580DE3
:1019B0000A004D6F746F72733A20424F54482046AC
:1019C0004F52574152440D0A004D6F746F72733A73
:1019D00020424F54482053544F500D0A004D6F740D
:1019E0006F72733A20424F5448204241434B574153
:1019F00052440D0A004D6F746F72733A20412046B5
:101A00004F52574152442C2042204241434B5741B0
:101A100052440D0A00526567203078253034583A18
:101A2000203078253034580D0A0025733A2030785C
:101A3000253032580D0A004652414D455F535441FE
:101A400052540D0A0025303458004652414D455F2E
:101A5000454E440D0A004572726F72733A20257527
:101A60000D0A000D0A3D3D3D20486F7473706F7480
:101A700020446574656374696F6E203D3D3D0D0AB9
:101A8000004D617820706978656C3A202825642CB7
:101A900020256429203D2025750D0A00486F7420FB
:101AA00063656E74726F69643A202825642E253050
:101AB00032642C2025642E25303264290D0A00540E
:101AC00068726573686F6C643A2025752C204D61CF
:101AD000783A2025750D0A00484F5453504F543A18
:101AE00025752C25752C25750D0A000D0A3D3D3DEB
:101AF000204D5055363035302054657374203D3DAF
:101B00003D0D0A004D50553630353020636F6E6EF6
:101B1000656374656421202857484F5F414D5F49D4
:101B2000203D2030783638290D0A00416363656C0A
:101B30003A20583D256420593D2564205A3D2564AE
:101B40000D0A004779726F3A2020583D25642059CC
:101B50003D2564205A3D25640D0A004D5055363010
:101B60003530204E4F5420464F554E44210D0A002B
:101B70004D5354415455533A203078253032582C27
:101B8000204D424155443A2025640D0A00427573A8
:101B90002053746174653A2000554E4B4E4F574E9A
:101BA0000D0A0049444C450D0A004F574E45520D51
:101BB0000A00425553590D0A00466F756E64206441
:101BC0006576696365206174203078253032580D60
:101BD0000A004E6F2049324320646576696365735D
:101BE00020666F756E64210D0A00546F74616C3A43
:101BF000202564206465766963652873290D0A00D1
:101C00004275732072657365742061667465722015
:071C10007363616E0D0A0011
:00000001FF
