:100000000C9450000C9462000C9462000C946200FA
:100010000C9462000C9462000C9462000C946200D8
:100020000C9462000C9462000C9462000C946200C8
:100030000C9464000C9462000C9462000C946200B6
:100040000C9462000C9462000C9462000C946200A8
:100050000C9462000C9462000C9462000C94620098
:100060000C9462000C9462000C9462000C94620088
:100070000C9462000C9462000C9462000C94620078
:100080000C9462000C9462000C9462000C94620068
:100090000C9462000C9462000C9462000C94620058
:1000A00011241FBECFEFCDBFDFE3DEBF28E2A0E00B
:1000B000B8E201C01D92A230B207E1F70E948A00A7
:1000C0000C94B0000C9400001F921FB61F921124D4
:1000D0002F938F939F9381E08093860A80910028CD
:1000E000909101280196843F21E0920758F4809373
:1000F0000028909301289F918F912F911F901FBEF0
:100100001F901895109200281092012880E2809389
:10011000A704F1CF80E28093A1048093A6041092FB
:10012000800A1092810A8FE39FE180938C0A90935A
:100130008D0A10928A0A10928B0A81E08093860AB7
:100140008093850A83E08093800A78942FEF83ED73
:1001500090E3215080409040E1F700C00000F6CFCE
:04016000F894FFCF41
:00000001FF
